{
  "_format": "hh-sol-artifact-1",
  "contractName": "Transactions",
  "sourceName": "contracts/Tramsaction.sol",
  "abi": [
    {
      "anonymous": false,
      "inputs": [
        {
          "indexed": false,
          "internalType": "address",
          "name": "from",
          "type": "address"
        },
        {
          "indexed": false,
          "internalType": "address",
          "name": "reveiver",
          "type": "address"
        },
        {
          "indexed": false,
          "internalType": "uint256",
          "name": "amount",
          "type": "uint256"
        },
        {
          "indexed": false,
          "internalType": "string",
          "name": "message",
          "type": "string"
        },
        {
          "indexed": false,
          "internalType": "uint256",
          "name": "timestamp",
          "type": "uint256"
        },
        {
          "indexed": false,
          "internalType": "string",
          "name": "keyword",
          "type": "string"
        }
      ],
      "name": "Transfer",
      "type": "event"
    },
    {
      "inputs": [
        {
          "internalType": "address payable",
          "name": "receiver",
          "type": "address"
        },
        {
          "internalType": "uint256",
          "name": "amount",
          "type": "uint256"
        },
        {
          "internalType": "string",
          "name": "message",
          "type": "string"
        },
        {
          "internalType": "string",
          "name": "keyword",
          "type": "string"
        }
      ],
      "name": "addToBlockchain",
      "outputs": [],
      "stateMutability": "nonpayable",
      "type": "function"
    },
    {
      "inputs": [],
      "name": "getAllTransaction",
      "outputs": [
        {
          "components": [
            {
              "internalType": "address",
              "name": "sender",
              "type": "address"
            },
            {
              "internalType": "address",
              "name": "receiver",
              "type": "address"
            },
            {
              "internalType": "uint256",
              "name": "amount",
              "type": "uint256"
            },
            {
              "internalType": "string",
              "name": "message",
              "type": "string"
            },
            {
              "internalType": "uint256",
              "name": "timestamp",
              "type": "uint256"
            },
            {
              "internalType": "string",
              "name": "keyword",
              "type": "string"
            }
          ],
          "internalType": "struct Transactions.TransferStruct[]",
          "name": "",
          "type": "tuple[]"
        }
      ],
      "stateMutability": "view",
      "type": "function"
    },
    {
      "inputs": [],
      "name": "getTransactionCount",
      "outputs": [
        {
          "internalType": "uint256",
          "name": "",
          "type": "uint256"
        }
      ],
      "stateMutability": "view",
      "type": "function"
    }
  ],
  "bytecode": "0x608060405234801561001057600080fd5b50610a37806100206000396000f3fe608060405234801561001057600080fd5b50600436106100415760003560e01c80632e7700f014610046578063add6415d14610064578063cc2d7ead14610082575b600080fd5b61004e61009e565b60405161005b919061032a565b60405180910390f35b61006c6100a7565b6040516100799190610580565b60405180910390f35b61009c60048036038101906100979190610755565b6100ac565b005b60008054905090565b606090565b60016000808282546100be9190610823565b9250508190555060016040518060c001604052803373ffffffffffffffffffffffffffffffffffffffff1681526020018673ffffffffffffffffffffffffffffffffffffffff16815260200185815260200184815260200142815260200183815250908060018154018082558091505060019003906000526020600020906006020160009091909190915060008201518160000160006101000a81548173ffffffffffffffffffffffffffffffffffffffff021916908373ffffffffffffffffffffffffffffffffffffffff16021790555060208201518160010160006101000a81548173ffffffffffffffffffffffffffffffffffffffff021916908373ffffffffffffffffffffffffffffffffffffffff1602179055506040820151816002015560608201518160030190805190602001906101fd92919061026e565b506080820151816004015560a082015181600501908051906020019061022492919061026e565b5050507f416cfa4330a4565f45c2fd2dd4826a83a37443aba2ce6f79477c7355afac35fa33858585428660405161026096959493929190610931565b60405180910390a150505050565b82805461027a906109cf565b90600052602060002090601f01602090048101928261029c57600085556102e3565b82601f106102b557805160ff19168380011785556102e3565b828001600101855582156102e3579182015b828111156102e25782518255916020019190600101906102c7565b5b5090506102f091906102f4565b5090565b5b8082111561030d5760008160009055506001016102f5565b5090565b6000819050919050565b61032481610311565b82525050565b600060208201905061033f600083018461031b565b92915050565b600081519050919050565b600082825260208201905092915050565b6000819050602082019050919050565b600073ffffffffffffffffffffffffffffffffffffffff82169050919050565b600061039c82610371565b9050919050565b6103ac81610391565b82525050565b6103bb81610311565b82525050565b600081519050919050565b600082825260208201905092915050565b60005b838110156103fb5780820151818401526020810190506103e0565b8381111561040a576000848401525b50505050565b6000601f19601f8301169050919050565b600061042c826103c1565b61043681856103cc565b93506104468185602086016103dd565b61044f81610410565b840191505092915050565b600060c08301600083015161047260008601826103a3565b50602083015161048560208601826103a3565b50604083015161049860408601826103b2565b50606083015184820360608601526104b08282610421565b91505060808301516104c560808601826103b2565b5060a083015184820360a08601526104dd8282610421565b9150508091505092915050565b60006104f6838361045a565b905092915050565b6000602082019050919050565b600061051682610345565b6105208185610350565b93508360208202850161053285610361565b8060005b8581101561056e578484038952815161054f85826104ea565b945061055a836104fe565b925060208a01995050600181019050610536565b50829750879550505050505092915050565b6000602082019050818103600083015261059a818461050b565b905092915050565b6000604051905090565b600080fd5b600080fd5b60006105c182610371565b9050919050565b6105d1816105b6565b81146105dc57600080fd5b50565b6000813590506105ee816105c8565b92915050565b6105fd81610311565b811461060857600080fd5b50565b60008135905061061a816105f4565b92915050565b600080fd5b600080fd5b7f4e487b7100000000000000000000000000000000000000000000000000000000600052604160045260246000fd5b61066282610410565b810181811067ffffffffffffffff821117156106815761068061062a565b5b80604052505050565b60006106946105a2565b90506106a08282610659565b919050565b600067ffffffffffffffff8211156106c0576106bf61062a565b5b6106c982610410565b9050602081019050919050565b82818337600083830152505050565b60006106f86106f3846106a5565b61068a565b90508281526020810184848401111561071457610713610625565b5b61071f8482856106d6565b509392505050565b600082601f83011261073c5761073b610620565b5b813561074c8482602086016106e5565b91505092915050565b6000806000806080858703121561076f5761076e6105ac565b5b600061077d878288016105df565b945050602061078e8782880161060b565b935050604085013567ffffffffffffffff8111156107af576107ae6105b1565b5b6107bb87828801610727565b925050606085013567ffffffffffffffff8111156107dc576107db6105b1565b5b6107e887828801610727565b91505092959194509250565b7f4e487b7100000000000000000000000000000000000000000000000000000000600052601160045260246000fd5b600061082e82610311565b915061083983610311565b9250827fffffffffffffffffffffffffffffffffffffffffffffffffffffffffffffffff0382111561086e5761086d6107f4565b5b828201905092915050565b61088281610391565b82525050565b6000819050919050565b60006108ad6108a86108a384610371565b610888565b610371565b9050919050565b60006108bf82610892565b9050919050565b60006108d1826108b4565b9050919050565b6108e1816108c6565b82525050565b600082825260208201905092915050565b6000610903826103c1565b61090d81856108e7565b935061091d8185602086016103dd565b61092681610410565b840191505092915050565b600060c0820190506109466000830189610879565b61095360208301886108d8565b610960604083018761031b565b818103606083015261097281866108f8565b9050610981608083018561031b565b81810360a083015261099381846108f8565b9050979650505050505050565b7f4e487b7100000000000000000000000000000000000000000000000000000000600052602260045260246000fd5b600060028204905060018216806109e757607f821691505b602082108114156109fb576109fa6109a0565b5b5091905056fea2646970667358221220e2ddbdba03334d190a61c34e9920cabc118ab44500e72e8579eed224b7b2983864736f6c63430008090033",
  "linkReferences": {},
  "deployedLinkReferences": {}
}